:020000040000FA
:0600000027EF03F01200DF
:0A00060001006C0600008A000000F3
:0400100004000000E8
:0C001400D9CFE6FFE1CFD9FF020EE126B4
:10002000DE6ADD6ADECF10F0DDCF11F0D89011501E
:1000300004E6640E105C000E115805E2DF2A010E82
:10004000F1E3DB2AEFD7020EE15C02E2E16AE5525E
:10005000E16EE552E7CFD9FF1200D9CFE6FFE1CF3D
:10006000D9FFFE0EDB50EA6A8A0FE96E000EEA2223
:10007000EF50010BE8B08280E8A08290FE0EDB50CA
:10008000EA6A8A0FE96E000EEA22EF407F0B010B4D
:10009000E8B08282E8A08292FE0EDB50EA6A8A0F04
:1000A000E96E000EEA22EF50E840E8403F0B010BFA
:1000B000E8B08284E8A08294FE0EDB50EA6A8A0FE0
:1000C000E96E000EEA22EF50E840E840E8401F0BDE
:1000D000010BE8B08286E8A08296FE0EDB50EA6A49
:1000E0008A0FE96E000EEA22EF380F0B010BE8B021
:1000F0008288E8A08298010EE76EFC0EDBCF10F03C
:10010000FD0EE7501016116A1050E8B08380E8A089
:100110008390FC0EDBCF10F0FD0EDBCF11F0D890FA
:1001200011321032010E1014E8B08382E8A08392DD
:10013000FC0EDBCF10F0FD0EDBCF11F0D8901132AA
:100140001032D89011321032010E1014E8B08384AE
:10015000E8A08394FC0EDBCF10F0FD0EDBCF11F096
:10016000030ED89011321032E804FBE1010E101496
:10017000E8B08386E8A08396FC0EDBCF10F0FD0E7E
:10018000DBCF11F0040ED89011321032E804FBE1FD
:10019000010E1014E8B08388E8A08398FC0EDBCF32
:1001A00010F0FD0EDBCF11F0050ED8901132103299
:1001B000E804FBE1010E1014E8B0838AE8A0839AFA
:1001C000FC0EDBCF10F0FD0EDBCF11F0060ED89049
:1001D00011321032E804FBE1010E1014E8B0838CF8
:1001E000E8A0839CFC0EDBCF10F0FD0EDBCF11F0FE
:1001F000070ED89011321032E804FBE1010E101402
:10020000E8B0838EE8A0839E828C829A03DF828C82
:10021000828A00DFFE0EDB50100DFE0EDB50EA6A14
:100220008A0FE96E000EEA22EF280F0BF324E66E28
:10023000FE0EDB50EA6A8A0FE96E000EEA22E552F2
:10024000E750EF6EE552E7CFD9FF1200D9CFE6FFB6
:10025000E1CFD9FF020EE126FE0EDB50EA6A8A0FDB
:10026000E96E000EEA22EF50100F146E156AFC0EB4
:10027000DB50145C126EFD0EDB501558136E120627
:10028000000E135A100E0D6E0E6A12C008F013C045
:1002900009F0DBEC02F004C012F005C013F0FE0E12
:1002A000DB50100DF35000010424106E000E0520E9
:1002B000116EFC0E10C0DBFFFD0E11C0DBFF010E46
:1002C000E76EFC0EDBCF10F0FD0EDBCF11F0E75038
:1002D0001016116A1050E8B08280E8A08290FC0EDF
:1002E000DBCF10F0FD0EDBCF11F0D89011321032C1
:1002F000010E1014E8B08282E8A08292FC0EDBCFDF
:1003000010F0FD0EDBCF11F0D89011321032D890E2
:1003100011321032010E1014E8B08284E8A08294E9
:10032000FC0EDBCF10F0FD0EDBCF11F0030ED890EA
:1003300011321032E804FBE1010E1014E8B082869D
:10034000E8A08296FC0EDBCF10F0FD0EDBCF11F0A3
:10035000040ED89011321032E804FBE1010E1014A3
:10036000E8B08288E8A082980F0E956E829C52DEDB
:100370008350800B01E0010EDE6EDD6AD9CFE9FF0C
:10038000DACFEAFF010ED890EE36ED36E806FBE153
:100390008350400B01E0010EDF12D9CFE9FFDACF25
:1003A000EAFF010ED890EE36ED36E806FBE1835009
:1003B000200B01E0010EDF12D9CFE9FFDACFEAFF0F
:1003C000010ED890EE36ED36E806FBE18350100BB7
:1003D00001E0010EDF12D9CFE9FFDACFEAFF010E0B
:1003E000D890EE36ED36E806FBE18350080B01E0CD
:1003F000010EDF12D9CFE9FFDACFEAFF010ED89064
:10040000EE36ED36E806FBE18350040B01E0010E09
:10041000DF12D9CFE9FFDACFEAFF010ED890EE362E
:10042000ED36E806FBE18350020B01E0010EDF121E
:10043000D9CFE9FFDACFEAFF010ED890EE36ED36DC
:10044000E806FBE18350010BDF12E4DD956A828C44
:10045000E1DDDECF10F0DDCF11F010C0F3FF11C0F1
:10046000F4FF020EE15C02E2E16AE552E16EE55260
:10047000E7CFD9FF1200D9CFE6FFE1CFD9FF040EB5
:10048000E126DE6ADD6A020EDB6A030EDB6A000E1D
:10049000836E956E826E946EDE6ADD6ADECF10F03A
:1004A000DDCF11F0D890115004E6100E105C000E54
:1004B000115812E2DFCF10F0DF2A010EDBCF11F06E
:1004C00001E3DB2A10C0E6FF11C0E6FFE66AC5DDE6
:1004D000E552E552E552E2D7DE6ADD6ADECF10F082
:1004E000DDCF11F0D890115004E6100E105C000E14
:1004F0001158D2E2DFCF10F0DF2A010EDBCF11F06E
:1005000001E3DB2A10C0E6FF11C0E6FFE66A9EDECB
:08051000E552E552E552E2D785
:08051800060EF66E000EF76EF0
:10052000000EF86E00010900F550856F0900F550C6
:10053000866F03E1856701D03DD00900F550806FDB
:100540000900F550816F0900F550826F090009001C
:10055000F550E96E0900F550EA6E0900090009003E
:10056000F550836F0900F550846F09000900F6CF3C
:1005700087F0F7CF88F0F8CF89F080C0F6FF81C010
:10058000F7FF82C0F8FF0001835302E1845307E0C4
:100590000900F550EE6E8307F8E28407F9D787C0AB
:1005A000F6FF88C0F7FF89C0F8FF00018507000E3D
:0605B000865BBFD71200BC
:0A05B600006A0EAEE4EF02F00D6CD7
:1005C0000E1EE86A0E22001E09AEECEF02F0086C67
:1005D000091EE86A0922001E01EC03F009BEFCEFC7
:1005E00002F000AE000C086C091EE86A0922046CD7
:1005F000051EE86A0522000C00BEF3EF02F0018838
:02060000FF0CED
:0E060200056A046A100EE76ED89008360936B5
:10061000043605360D50045C0E50055805E30D50A8
:0E062000045E0E50055A082AE72EF0D712008D
:02062E00000EBC
:10063000F36E00EE00F0060E01D81200EA6002D060
:0E064000EE6AFCD7F350E9601200EE6AFCD7B8
:02064E0015EEA7
:1006500000F025EE00F0F86A019C8CEC02F035EC1D
:0A06600003F03BEC02F0FBD71200A0
:02066A0012007C
:04066C00001020302A
:020000040030CA
:010002000DF0
:010003000EEE
:010006008178
:010008000FE8
:01000900C036
:01000B00E014
:00000001FF
