:020000040000FA
:06000000F7EF00F0120012
:020006000000F8
:08000800060EF66E000EF76E05
:10001000000EF86E00010900F550856F0900F550DB
:10002000866F03E1856701D03DD00900F550806FF0
:100030000900F550816F0900F550826F0900090031
:10004000F550E96E0900F550EA6E09000900090053
:10005000F550836F0900F550846F09000900F6CF51
:1000600087F0F7CF88F0F8CF89F080C0F6FF81C025
:10007000F7FF82C0F8FF0001835302E1845307E0D9
:100080000900F550EE6E8307F8E28407F9D787C0C0
:10009000F6FF88C0F7FF89C0F8FF00018507000E52
:0600A000865BBFD71200D1
:0A00A600D9CFE6FFE1CFD9FF020E2B
:1000B000E126DE6ADD6ADECF02F0DDCF03F0D89004
:1000C000035004E6640E025C000E035805E2DF2ACA
:1000D000010EF1E3DB2AEFD7020EE15C02E2E16AF6
:1000E000E552E16EE552E7CFD9FF1200D9CFE6FF26
:1000F000E1CFD9FF020EE126DE6ADD6A0C0EE66E64
:10010000E66A1C0EE66E93EC00F0E552E552E5520D
:10011000ACA204D0E668D0EC00F0F9D7DF2A010EDB
:06012000F7E3DB2AF5D72E
:0A012600D9CFE6FFDACFE6FFE1CF04
:10013000D9FFE2CFDAFFAC6AAB6AFD0EDBB0AC8868
:10014000DBA202D0AC8CAB8CDBB4AC8EDBA602D0D5
:10015000AB8801D0AB8ADBA802D0AC8401D0AC94D0
:100160009E98DBAC02D09D8A01D09D9A9E9ADBAE10
:1001700002D09D8801D09D98FB0EDB50AF6EAC8AFB
:10018000AB8E949C948EAC50100B04E0AC50800B62
:1001900001E1948CE552E5CFDAFFE7CFD9FF1200F9
:1001A000D9CFE6FFDACFE6FFE1CFD9FFE2CFDAFF22
:1001B000ACAC04D0AC9000018AB3AC80FD0EDB5037
:0E01C000AD6EE552E5CFDAFFE7CFD9FF1200B2
:0201CE00000E21
:1001D000F36E00EE00F0060E01D81200EA6002D0C5
:0E01E000EE6AFCD7F350E9601200EE6AFCD71D
:0201EE0015EE0C
:1001F00000F025EE00F0F86A019C04EC00F005EC3C
:0A02000001F076EC00F0FBD71200CD
:02020A001200E0
:020000040030CA
:010002000DF0
:010003000EEE
:010006008178
:010008000FE8
:01000900C036
:01000B00E014
:00000001FF
