:020000040000FA
:06000000B4EF00F0120055
:020006000000F8
:08000800D9CFE6FFE1CFD9FFDB
:10001000040EE126DE6ADD6A020EDB6A030EDB6A8D
:100020007F0E926EC26A800EC16EC280946A826A2E
:10003000956A836AC284C2B4FED7C350826EC4502C
:10004000836EDF2A010E01E3DB2A020EDB6A030E58
:10005000DB6A020EDBCF02F0030EDBCF03F0D89099
:10006000035004E6100E025C270E0358E3E2020E72
:10007000DB2A030EEEE3DB2AECD7D9CFE6FFE1CF94
:10008000D9FFC26AFE0EDB50080DF350C26EC2806B
:10009000C284C2B4FED7C290C350036AF36E03C0D9
:0A00A000F4FFE552E7CFD9FF12008C
:0600AA00060EF66E000ECA
:1000B000F76E000EF86E00010900F550856F09001B
:1000C000F550866F03E1856701D03DD00900F550FA
:1000D000806F0900F550816F0900F550826F0900AB
:1000E0000900F550E96E0900F550EA6E09000900B3
:1000F0000900F550836F0900F550846F090009006D
:10010000F6CF87F0F7CF88F0F8CF89F080C0F6FF00
:1001100081C0F7FF82C0F8FF0001835302E18453DE
:1001200007E00900F550EE6E8307F8E28407F9D77F
:1001300087C0F6FF88C0F7FF89C0F8FF0001850778
:08014000000E865BBFD7120020
:08014800000EF36E00EE00F062
:10015000060E01D81200EA6002D0EE6AFCD7F35016
:08016000E9601200EE6AFCD711
:0801680015EE00F025EE00F099
:10017000F86A019C55EC00F0C2EC00F004EC00F0D1
:04018000FBD7120097
:02018400120067
:020000040030CA
:010002000DF0
:010003000EEE
:010006008178
:010008000FE8
:01000900C036
:01000B00E014
:00000001FF
