:020000040000FA
:0600000026EF01F01200E2
:0A00060001006A0200008B000000F8
:0400100001000000EB
:0C001400E668E8EC00F0E552E668E8EC75
:1000200000F0E552E668E8EC00F0E552E668E8EC3E
:1000300000F0E5521200D9CFE6FFE1CFD9FF0D0E57
:10004000E126610EDF6ED950010FE96EDACFEAFFCB
:10005000680EEE6E650EEE6E6C0EEE6EEE6E6F0E50
:10006000EE6E200EEE6E770EEE6E6F0EEE6E720E70
:10007000EE6E6C0EEE6E640EEE6EEE6A0C0EE66EBA
:10008000E66A1C0EE66EABEC00F0E552E552E55276
:10009000ACA2FED7E668FFEC00F0E552410EE66E3A
:1000A000FFEC00F0E552E66AFFEC00F0E552550E79
:0800B000E66EFFEC00F0EBD757
:0800B800060EF66E000EF76E55
:1000C000000EF86E00010900F550856F0900F5502B
:1000D000866F03E1856701D03DD00900F550806F40
:1000E0000900F550816F0900F550826F0900090081
:1000F000F550E96E0900F550EA6E090009000900A3
:10010000F550836F0900F550846F09000900F6CFA0
:1001100087F0F7CF88F0F8CF89F080C0F6FF81C074
:10012000F7FF82C0F8FF0001835302E1845307E028
:100130000900F550EE6E8307F8E28407F9D787C00F
:10014000F6FF88C0F7FF89C0F8FF00018507000EA1
:06015000865BBFD7120020
:0A015600D9CFE6FFDACFE6FFE1CFD4
:10016000D9FFE2CFDAFFAC6AAB6AFD0EDBB0AC8838
:10017000DBA202D0AC8CAB8CDBB4AC8EDBA602D0A5
:10018000AB8801D0AB8ADBA802D0AC8401D0AC94A0
:100190009E98DBAC02D09D8A01D09D9A9E9ADBAEE0
:1001A00002D09D8801D09D98FB0EDB50AF6EAC8ACB
:1001B000AB8E949C948EAC50100B04E0AC50800B32
:1001C00001E1948CE552E5CFDAFFE7CFD9FF1200C9
:1001D000FF0EE350036EEF0E01D0F30EE76EE72E35
:1001E000EFEF00F00C0E026EE76AE72EF5EF00F07D
:0E01F000022EF4EF00F0032EEDEF00F01200EF
:0201FE00D9CF57
:10020000E6FFDACFE6FFE1CFD9FFE2CFDAFFACAC11
:1002100004D0AC9000018AB3AC80FD0EDB50AD6E13
:0C022000E552E5CFDAFFE7CFD9FF12006E
:04022C00000EF36E5F
:1002300000EE00F0060E01D81200EA6002D0EE6A6D
:0C024000FCD7F350E9601200EE6AFCD716
:04024C0015EE00F0BB
:1002500025EE00F0F86A019C5CEC00F034EC01F053
:080260001BEC00F0FBD71200BB
:02026800120082
:01026A000093
:020000040030CA
:010002000DF0
:010003000EEE
:010006008178
:010008000FE8
:01000900C036
:01000B00E014
:00000001FF
