:020000040000FA
:06000000B3EF00F0120056
:020006000000F8
:08000800D9CFE6FFE1CFD9FFDB
:10001000020EE126DE6ADD6ADECF02F0DDCF03F0FC
:10002000D890035004E6100E025C270E035805E238
:10003000DF2A010EF1E3DB2AEFD7020EE15C02E2D8
:10004000E16AE552E16EE552E7CFD9FF1200D9CF60
:10005000E6FFE1CFD9FFFE0EDB50070BF36EF34650
:10006000F346F346C70EC214F310C26EE552E7CF53
:10007000D9FF1200C284C2B4FED712007F0E926E66
:10008000800EC26E8F0EC16EC280000E836E956EA2
:10009000826E946EE66ADBDFE552ECDFC350826E5F
:0800A000C450836EB1DFF9D7F3
:0800A800060EF66E000EF76E65
:1000B000000EF86E00010900F550856F0900F5503B
:1000C000866F03E1856701D03DD00900F550806F50
:1000D0000900F550816F0900F550826F0900090091
:1000E000F550E96E0900F550EA6E090009000900B3
:1000F000F550836F0900F550846F09000900F6CFB1
:1001000087F0F7CF88F0F8CF89F080C0F6FF81C084
:10011000F7FF82C0F8FF0001835302E1845307E038
:100120000900F550EE6E8307F8E28407F9D787C01F
:10013000F6FF88C0F7FF89C0F8FF00018507000EB1
:06014000865BBFD7120030
:0A014600000EF36E00EE00F0060E4E
:1001500001D81200EA6002D0EE6AFCD7F350E960E1
:060160001200EE6AFCD75C
:0A01660015EE00F025EE00F0F86A37
:10017000019C54EC00F0C1EC00F03EEC00F0FBD729
:0201800012006B
:02018200120069
:020000040030CA
:010002000DF0
:010003000EEE
:010006008178
:010008000FE8
:01000900C036
:01000B00E014
:00000001FF
