:020000040000FA
:06000000A2EF01F0120066
:020006000000F8
:08000800D9CFE6FFE1CFD9FFDB
:10001000020EE126DE6ADD6ADECF10F0DDCF11F0E0
:10002000D890115004E6640E105C000E115805E2E1
:10003000DF2A010EF1E3DB2AEFD7020EE15C02E2D8
:10004000E16AE552E16EE552E7CFD9FF1200D9CF60
:10005000E6FFE1CFD9FF0E0EE126DE6ADD6AD95058
:10006000020FE96EDACFEAFF680EEE6E650EEE6EF5
:100070006C0EEE6EEE6E6F0EEE6E200EEE6E770E66
:10008000EE6E6F0EEE6E720EEE6E6C0EEE6E640E17
:10009000EE6EEE6A0C0EE66EE66A1E0EE66EDCECA6
:1000A00000F0E552E552E552D950020FE66E000E1F
:1000B000DA202DD8650EE66E030E29D8010EE66E05
:1000C000A3DFE552DECF10F0DDCF11F00A0E0D6E8A
:1000D0000E6A10C008F011C009F019EC01F004C05C
:1000E00010F005C011F0045005100CE0600EE66E33
:1000F000030E0DD8DECFE6FFDDCFE6FF3FEC01F0CB
:10010000E552E552DF2A010ED5E3DB2AD3D7E66EAE
:0A0110003FEC01F0E552E552120049
:06011A00060EF66E000E59
:10012000F76E000EF86E00010900F550856F0900AA
:10013000F550866F03E1856701D03DD00900F55089
:10014000806F0900F550816F0900F550826F09003A
:100150000900F550E96E0900F550EA6E0900090042
:100160000900F550836F0900F550846F09000900FC
:10017000F6CF87F0F7CF88F0F8CF89F080C0F6FF90
:1001800081C0F7FF82C0F8FF0001835302E184536E
:1001900007E00900F550EE6E8307F8E28407F9D70F
:1001A00087C0F6FF88C0F7FF89C0F8FF0001850708
:0801B000000E865BBFD71200B0
:0801B800D9CFE6FFDACFE6FF24
:1001C000E1CFD9FFE2CFDAFFAC6AAB6AFD0EDBB05C
:1001D000AC88DBA202D0AC8CAB8CDBB4AC8EDBA6E3
:1001E00002D0AB8801D0AB8ADBA802D0AC8401D0AE
:1001F000AC949E98DBAC02D09D8A01D09D9A9E9AC9
:10020000DBAE02D09D8801D09D98FB0EDB50AF6E17
:10021000AC8AAB8E949C948EAC50100B04E0AC5026
:10022000800B01E1948CE552E5CFDAFFE7CFD9FFEF
:020230001200BA
:0E023200006A0EAE22EF01F00D6C0E1EE86A9F
:100240000E22001E09AE2AEF01F0086C091EE86AB2
:100250000922001E7CEC01F009BE3AEF01F000AE6D
:10026000000C086C091EE86A0922046C051EE86A85
:0E0270000522000C00BE31EF01F00188FF0CEA
:02027E00D9CFD6
:10028000E6FFDACFE6FFE1CFD9FFE2CFDAFFACA29B
:10029000FED7FC0EDBCFE9FFFD0EDBCFEAFFEF5010
:1002A000E66E65EC01F0E552FC0EDBCFE9FFDB2AE0
:1002B000FD0EDBCFEAFF01E3DB2AEF50E8E1E55278
:0A02C000E5CFDAFFE7CFD9FF120007
:0602CA00D9CFE6FFDACFF8
:1002D000E6FFE1CFD9FFE2CFDAFFACAC04D0AC90BF
:1002E00000018AB3AC80FD0EDB50AD6EE552E5CF68
:0802F000DAFFE7CFD9FF12008D
:0802F800056A046A100EE76EAE
:10030000D89008360936043605360D50045C0E5078
:10031000055805E30D50045E0E50055A082AE72ED5
:04032000F0D7120000
:0C032400000EF36E00EE00F0060E01D893
:100330001200EA6002D0EE6AFCD7F350E9601200C6
:04034000EE6AFCD78E
:0C03440015EE00F025EE00F0F86A019CB8
:100350008DEC00F0B4EC01F027EC00F0FBD71200BC
:080360001B5B324A006C6F00C8
:02036800120081
:020000040030CA
:010002000DF0
:010003000EEE
:010006008178
:010008000FE8
:01000900C036
:01000B00E014
:00000001FF
